{
  "_format": "hh-sol-artifact-1",
  "contractName": "VotingContract",
  "sourceName": "contracts/voting.sol",
  "abi": [
    {
      "inputs": [],
      "stateMutability": "nonpayable",
      "type": "constructor"
    },
    {
      "anonymous": false,
      "inputs": [
        {
          "indexed": true,
          "internalType": "uint256",
          "name": "candidateId",
          "type": "uint256"
        },
        {
          "indexed": false,
          "internalType": "uint256",
          "name": "voteCount",
          "type": "uint256"
        },
        {
          "indexed": false,
          "internalType": "address",
          "name": "_address",
          "type": "address"
        },
        {
          "indexed": false,
          "internalType": "string",
          "name": "ipfs",
          "type": "string"
        }
      ],
      "name": "CreatingCandidate",
      "type": "event"
    },
    {
      "anonymous": false,
      "inputs": [
        {
          "indexed": true,
          "internalType": "uint256",
          "name": "voterId",
          "type": "uint256"
        },
        {
          "indexed": false,
          "internalType": "uint256",
          "name": "voter_allowed",
          "type": "uint256"
        },
        {
          "indexed": false,
          "internalType": "uint256",
          "name": "voter_vote",
          "type": "uint256"
        },
        {
          "indexed": false,
          "internalType": "address",
          "name": "voter_address",
          "type": "address"
        },
        {
          "indexed": false,
          "internalType": "bool",
          "name": "voter_voted",
          "type": "bool"
        }
      ],
      "name": "CreatingVoter",
      "type": "event"
    },
    {
      "inputs": [],
      "name": "_candidateId",
      "outputs": [
        {
          "internalType": "uint256",
          "name": "_value",
          "type": "uint256"
        }
      ],
      "stateMutability": "view",
      "type": "function"
    },
    {
      "inputs": [],
      "name": "_voterId",
      "outputs": [
        {
          "internalType": "uint256",
          "name": "_value",
          "type": "uint256"
        }
      ],
      "stateMutability": "view",
      "type": "function"
    },
    {
      "inputs": [
        {
          "internalType": "uint256",
          "name": "",
          "type": "uint256"
        }
      ],
      "name": "candidateAddress",
      "outputs": [
        {
          "internalType": "address",
          "name": "",
          "type": "address"
        }
      ],
      "stateMutability": "view",
      "type": "function"
    },
    {
      "inputs": [
        {
          "internalType": "uint256",
          "name": "",
          "type": "uint256"
        }
      ],
      "name": "candidates",
      "outputs": [
        {
          "internalType": "uint256",
          "name": "candidateId",
          "type": "uint256"
        },
        {
          "internalType": "uint256",
          "name": "voteCount",
          "type": "uint256"
        },
        {
          "internalType": "address",
          "name": "_address",
          "type": "address"
        },
        {
          "internalType": "string",
          "name": "ipfs",
          "type": "string"
        }
      ],
      "stateMutability": "view",
      "type": "function"
    },
    {
      "inputs": [
        {
          "internalType": "uint256",
          "name": "_index",
          "type": "uint256"
        }
      ],
      "name": "getCandidateData",
      "outputs": [
        {
          "internalType": "uint256",
          "name": "",
          "type": "uint256"
        },
        {
          "internalType": "uint256",
          "name": "",
          "type": "uint256"
        },
        {
          "internalType": "address",
          "name": "",
          "type": "address"
        },
        {
          "internalType": "string",
          "name": "",
          "type": "string"
        }
      ],
      "stateMutability": "view",
      "type": "function"
    },
    {
      "inputs": [],
      "name": "getCandidateLength",
      "outputs": [
        {
          "internalType": "uint256",
          "name": "",
          "type": "uint256"
        }
      ],
      "stateMutability": "view",
      "type": "function"
    },
    {
      "inputs": [],
      "name": "getVoterLength",
      "outputs": [
        {
          "internalType": "uint256",
          "name": "",
          "type": "uint256"
        }
      ],
      "stateMutability": "view",
      "type": "function"
    },
    {
      "inputs": [],
      "name": "getVotersList",
      "outputs": [
        {
          "internalType": "address[]",
          "name": "",
          "type": "address[]"
        }
      ],
      "stateMutability": "view",
      "type": "function"
    },
    {
      "inputs": [
        {
          "internalType": "address",
          "name": "_address",
          "type": "address"
        }
      ],
      "name": "giveVoterRight",
      "outputs": [],
      "stateMutability": "nonpayable",
      "type": "function"
    },
    {
      "inputs": [
        {
          "internalType": "address",
          "name": "_address",
          "type": "address"
        },
        {
          "internalType": "string",
          "name": "_ipfs",
          "type": "string"
        }
      ],
      "name": "setCandidate",
      "outputs": [],
      "stateMutability": "nonpayable",
      "type": "function"
    },
    {
      "inputs": [
        {
          "internalType": "uint256",
          "name": "candidateId",
          "type": "uint256"
        }
      ],
      "name": "vote",
      "outputs": [],
      "stateMutability": "nonpayable",
      "type": "function"
    },
    {
      "inputs": [
        {
          "internalType": "uint256",
          "name": "",
          "type": "uint256"
        }
      ],
      "name": "votedVoters",
      "outputs": [
        {
          "internalType": "address",
          "name": "",
          "type": "address"
        }
      ],
      "stateMutability": "view",
      "type": "function"
    },
    {
      "inputs": [
        {
          "internalType": "address",
          "name": "",
          "type": "address"
        }
      ],
      "name": "voters",
      "outputs": [
        {
          "internalType": "uint256",
          "name": "voter_voterId",
          "type": "uint256"
        },
        {
          "internalType": "uint256",
          "name": "voter_allowed",
          "type": "uint256"
        },
        {
          "internalType": "uint256",
          "name": "voter_vote",
          "type": "uint256"
        },
        {
          "internalType": "address",
          "name": "voter_address",
          "type": "address"
        },
        {
          "internalType": "bool",
          "name": "voter_voted",
          "type": "bool"
        }
      ],
      "stateMutability": "view",
      "type": "function"
    },
    {
      "inputs": [
        {
          "internalType": "uint256",
          "name": "",
          "type": "uint256"
        }
      ],
      "name": "votersAddress",
      "outputs": [
        {
          "internalType": "address",
          "name": "",
          "type": "address"
        }
      ],
      "stateMutability": "view",
      "type": "function"
    },
    {
      "inputs": [],
      "name": "votingOrganizer",
      "outputs": [
        {
          "internalType": "address",
          "name": "",
          "type": "address"
        }
      ],
      "stateMutability": "view",
      "type": "function"
    }
  ],
  "bytecode": "0x608060405234801561001057600080fd5b5033600260006101000a81548173ffffffffffffffffffffffffffffffffffffffff021916908373ffffffffffffffffffffffffffffffffffffffff1602179055506117a3806100616000396000f3fe608060405234801561001057600080fd5b50600436106100f55760003560e01c80637831ffb311610097578063bc86f38511610066578063bc86f385146102a1578063bca50c4d146102bf578063e2436651146102f2578063f7522a831461030e576100f5565b80637831ffb314610201578063a3ec138d14610231578063a738896714610265578063b9be315214610283576100f5565b80633477ee2e116100d35780633477ee2e146101505780633a88251a1461018357806343242daa146101b35780635cc48aa7146101e3576100f5565b80630121b93f146100fa57806305ad45a414610116578063084a0d4514610134575b600080fd5b610114600480360381019061010f9190610ead565b61032c565b005b61011e61056c565b60405161012b9190610ee9565b60405180910390f35b61014e600480360381019061014991906110a8565b610579565b005b61016a60048036038101906101659190610ead565b61074d565b60405161017a949392919061119b565b60405180910390f35b61019d60048036038101906101989190610ead565b610825565b6040516101aa91906111e7565b60405180910390f35b6101cd60048036038101906101c89190610ead565b610864565b6040516101da91906111e7565b60405180910390f35b6101eb6108a3565b6040516101f891906111e7565b60405180910390f35b61021b60048036038101906102169190610ead565b6108c9565b60405161022891906111e7565b60405180910390f35b61024b60048036038101906102469190611202565b610908565b60405161025c95949392919061124a565b60405180910390f35b61026d61096b565b60405161027a9190610ee9565b60405180910390f35b61028b610977565b6040516102989190610ee9565b60405180910390f35b6102a9610983565b6040516102b6919061135b565b60405180910390f35b6102d960048036038101906102d49190610ead565b610a11565b6040516102e9949392919061119b565b60405180910390f35b61030c60048036038101906103079190611202565b610b2e565b005b610316610d8b565b6040516103239190610ee9565b60405180910390f35b6000600760003373ffffffffffffffffffffffffffffffffffffffff1673ffffffffffffffffffffffffffffffffffffffff16815260200190815260200160002090508060030160149054906101000a900460ff16156103c1576040517f08c379a00000000000000000000000000000000000000000000000000000000081526004016103b8906113c9565b60405180910390fd5b600081600101541415610409576040517f08c379a000000000000000000000000000000000000000000000000000000000815260040161040090611435565b60405180910390fd5b3373ffffffffffffffffffffffffffffffffffffffff166004600084815260200190815260200160002060020160009054906101000a900473ffffffffffffffffffffffffffffffffffffffff1673ffffffffffffffffffffffffffffffffffffffff1614156104ae576040517f08c379a00000000000000000000000000000000000000000000000000000000081526004016104a5906114a1565b60405180910390fd5b60018160030160146101000a81548160ff0219169083151502179055508181600201819055506005339080600181540180825580915050600190039060005260206000200160009091909190916101000a81548173ffffffffffffffffffffffffffffffffffffffff021916908373ffffffffffffffffffffffffffffffffffffffff160217905550806001015460046000848152602001908152602001600020600101600082825461056191906114f0565b925050819055505050565b6000600680549050905090565b600260009054906101000a900473ffffffffffffffffffffffffffffffffffffffff1673ffffffffffffffffffffffffffffffffffffffff163373ffffffffffffffffffffffffffffffffffffffff1614610609576040517f08c379a000000000000000000000000000000000000000000000000000000000815260040161060090611592565b60405180910390fd5b60006106156001610d9c565b9050600060046000838152602001908152602001600020905081816000018190555060008160010181905550838160020160006101000a81548173ffffffffffffffffffffffffffffffffffffffff021916908373ffffffffffffffffffffffffffffffffffffffff1602179055508281600301908051906020019061069c929190610dc0565b506106a76001610daa565b6003849080600181540180825580915050600190039060005260206000200160009091909190916101000a81548173ffffffffffffffffffffffffffffffffffffffff021916908373ffffffffffffffffffffffffffffffffffffffff160217905550817fe7f27339cff4f53475ffa14b4d8d00e4b4e69e019c851306ec321eae541785326000868660405161073f939291906115f7565b60405180910390a250505050565b60046020528060005260406000206000915090508060000154908060010154908060020160009054906101000a900473ffffffffffffffffffffffffffffffffffffffff16908060030180546107a290611664565b80601f01602080910402602001604051908101604052809291908181526020018280546107ce90611664565b801561081b5780601f106107f05761010080835404028352916020019161081b565b820191906000526020600020905b8154815290600101906020018083116107fe57829003601f168201915b5050505050905084565b6003818154811061083557600080fd5b906000526020600020016000915054906101000a900473ffffffffffffffffffffffffffffffffffffffff1681565b6006818154811061087457600080fd5b906000526020600020016000915054906101000a900473ffffffffffffffffffffffffffffffffffffffff1681565b600260009054906101000a900473ffffffffffffffffffffffffffffffffffffffff1681565b600581815481106108d957600080fd5b906000526020600020016000915054906101000a900473ffffffffffffffffffffffffffffffffffffffff1681565b60076020528060005260406000206000915090508060000154908060010154908060020154908060030160009054906101000a900473ffffffffffffffffffffffffffffffffffffffff16908060030160149054906101000a900460ff16905085565b60018060000154905081565b60008060000154905081565b60606006805480602002602001604051908101604052809291908181526020018280548015610a0757602002820191906000526020600020905b8160009054906101000a900473ffffffffffffffffffffffffffffffffffffffff1673ffffffffffffffffffffffffffffffffffffffff16815260200190600101908083116109bd575b5050505050905090565b60008060006060600460008681526020019081526020016000206000015460046000878152602001908152602001600020600101546004600088815260200190815260200160002060020160009054906101000a900473ffffffffffffffffffffffffffffffffffffffff1660046000898152602001908152602001600020600301808054610a9f90611664565b80601f0160208091040260200160405190810160405280929190818152602001828054610acb90611664565b8015610b185780601f10610aed57610100808354040283529160200191610b18565b820191906000526020600020905b815481529060010190602001808311610afb57829003601f168201915b5050505050905093509350935093509193509193565b600260009054906101000a900473ffffffffffffffffffffffffffffffffffffffff1673ffffffffffffffffffffffffffffffffffffffff163373ffffffffffffffffffffffffffffffffffffffff1614610bbe576040517f08c379a0000000000000000000000000000000000000000000000000000000008152600401610bb590611708565b60405180910390fd5b610bc86000610daa565b6000610bd46000610d9c565b90506000600760008473ffffffffffffffffffffffffffffffffffffffff1673ffffffffffffffffffffffffffffffffffffffff16815260200190815260200160002090506000816001015414610c2a57600080fd5b818160000181905550600181600101819055506103e88160020181905550828160030160006101000a81548173ffffffffffffffffffffffffffffffffffffffff021916908373ffffffffffffffffffffffffffffffffffffffff16021790555060008160030160146101000a81548160ff0219169083151502179055506006839080600181540180825580915050600190039060005260206000200160009091909190916101000a81548173ffffffffffffffffffffffffffffffffffffffff021916908373ffffffffffffffffffffffffffffffffffffffff160217905550817f0e92ea2fee16de6fdd67ab876bc522d46441f98c06ff863d38220510c823b45f826001015483600201548460030160009054906101000a900473ffffffffffffffffffffffffffffffffffffffff168560030160149054906101000a900460ff16604051610d7e9493929190611728565b60405180910390a2505050565b6000610d976001610d9c565b905090565b600081600001549050919050565b6001816000016000828254019250508190555050565b828054610dcc90611664565b90600052602060002090601f016020900481019282610dee5760008555610e35565b82601f10610e0757805160ff1916838001178555610e35565b82800160010185558215610e35579182015b82811115610e34578251825591602001919060010190610e19565b5b509050610e429190610e46565b5090565b5b80821115610e5f576000816000905550600101610e47565b5090565b6000604051905090565b600080fd5b600080fd5b6000819050919050565b610e8a81610e77565b8114610e9557600080fd5b50565b600081359050610ea781610e81565b92915050565b600060208284031215610ec357610ec2610e6d565b5b6000610ed184828501610e98565b91505092915050565b610ee381610e77565b82525050565b6000602082019050610efe6000830184610eda565b92915050565b600073ffffffffffffffffffffffffffffffffffffffff82169050919050565b6000610f2f82610f04565b9050919050565b610f3f81610f24565b8114610f4a57600080fd5b50565b600081359050610f5c81610f36565b92915050565b600080fd5b600080fd5b6000601f19601f8301169050919050565b7f4e487b7100000000000000000000000000000000000000000000000000000000600052604160045260246000fd5b610fb582610f6c565b810181811067ffffffffffffffff82111715610fd457610fd3610f7d565b5b80604052505050565b6000610fe7610e63565b9050610ff38282610fac565b919050565b600067ffffffffffffffff82111561101357611012610f7d565b5b61101c82610f6c565b9050602081019050919050565b82818337600083830152505050565b600061104b61104684610ff8565b610fdd565b90508281526020810184848401111561106757611066610f67565b5b611072848285611029565b509392505050565b600082601f83011261108f5761108e610f62565b5b813561109f848260208601611038565b91505092915050565b600080604083850312156110bf576110be610e6d565b5b60006110cd85828601610f4d565b925050602083013567ffffffffffffffff8111156110ee576110ed610e72565b5b6110fa8582860161107a565b9150509250929050565b61110d81610f24565b82525050565b600081519050919050565b600082825260208201905092915050565b60005b8381101561114d578082015181840152602081019050611132565b8381111561115c576000848401525b50505050565b600061116d82611113565b611177818561111e565b935061118781856020860161112f565b61119081610f6c565b840191505092915050565b60006080820190506111b06000830187610eda565b6111bd6020830186610eda565b6111ca6040830185611104565b81810360608301526111dc8184611162565b905095945050505050565b60006020820190506111fc6000830184611104565b92915050565b60006020828403121561121857611217610e6d565b5b600061122684828501610f4d565b91505092915050565b60008115159050919050565b6112448161122f565b82525050565b600060a08201905061125f6000830188610eda565b61126c6020830187610eda565b6112796040830186610eda565b6112866060830185611104565b611293608083018461123b565b9695505050505050565b600081519050919050565b600082825260208201905092915050565b6000819050602082019050919050565b6112d281610f24565b82525050565b60006112e483836112c9565b60208301905092915050565b6000602082019050919050565b60006113088261129d565b61131281856112a8565b935061131d836112b9565b8060005b8381101561134e57815161133588826112d8565b9750611340836112f0565b925050600181019050611321565b5085935050505092915050565b6000602082019050818103600083015261137581846112fd565b905092915050565b7f596f75206861766520616c726561647920766f74656400000000000000000000600082015250565b60006113b360168361111e565b91506113be8261137d565b602082019050919050565b600060208201905081810360008301526113e2816113a6565b9050919050565b7f596f752068617665206e6f20726967687420746f20766f746500000000000000600082015250565b600061141f60198361111e565b915061142a826113e9565b602082019050919050565b6000602082019050818103600083015261144e81611412565b9050919050565b7f596f752063616e6e6f7420766f746520666f7220796f75722073656c66000000600082015250565b600061148b601d8361111e565b915061149682611455565b602082019050919050565b600060208201905081810360008301526114ba8161147e565b9050919050565b7f4e487b7100000000000000000000000000000000000000000000000000000000600052601160045260246000fd5b60006114fb82610e77565b915061150683610e77565b9250827fffffffffffffffffffffffffffffffffffffffffffffffffffffffffffffffff0382111561153b5761153a6114c1565b5b828201905092915050565b7f4f6c79204f7267616e697a65722063616e207365742043616e64696461746500600082015250565b600061157c601f8361111e565b915061158782611546565b602082019050919050565b600060208201905081810360008301526115ab8161156f565b9050919050565b6000819050919050565b6000819050919050565b60006115e16115dc6115d7846115b2565b6115bc565b610e77565b9050919050565b6115f1816115c6565b82525050565b600060608201905061160c60008301866115e8565b6116196020830185611104565b818103604083015261162b8184611162565b9050949350505050565b7f4e487b7100000000000000000000000000000000000000000000000000000000600052602260045260246000fd5b6000600282049050600182168061167c57607f821691505b602082108114156116905761168f611635565b5b50919050565b7f4f6e6c79206f7267616e697a65722063616e206769766520726967687420746f60008201527f20766f7465000000000000000000000000000000000000000000000000000000602082015250565b60006116f260258361111e565b91506116fd82611696565b604082019050919050565b60006020820190508181036000830152611721816116e5565b9050919050565b600060808201905061173d6000830187610eda565b61174a6020830186610eda565b6117576040830185611104565b611764606083018461123b565b9594505050505056fea26469706673582212209f97b67589875a457827d43b091e3a0dd9d0474957dd934cd0c611944de5cde164736f6c63430008090033",
  "linkReferences": {},
  "deployedLinkReferences": {}
}