{
  "_format": "hh-sol-artifact-1",
  "contractName": "VotingContract",
  "sourceName": "contracts/voting.sol",
  "abi": [
    {
      "anonymous": false,
      "inputs": [
        {
          "indexed": true,
          "internalType": "uint256",
          "name": "candidateId",
          "type": "uint256"
        },
        {
          "indexed": false,
          "internalType": "uint256",
          "name": "voteCount",
          "type": "uint256"
        },
        {
          "indexed": false,
          "internalType": "address",
          "name": "_address",
          "type": "address"
        },
        {
          "indexed": false,
          "internalType": "string",
          "name": "ipfs",
          "type": "string"
        }
      ],
      "name": "CreatingCandidate",
      "type": "event"
    },
    {
      "anonymous": false,
      "inputs": [
        {
          "indexed": true,
          "internalType": "uint256",
          "name": "voterId",
          "type": "uint256"
        },
        {
          "indexed": false,
          "internalType": "uint256",
          "name": "voter_allowed",
          "type": "uint256"
        },
        {
          "indexed": false,
          "internalType": "uint256",
          "name": "voter_vote",
          "type": "uint256"
        },
        {
          "indexed": false,
          "internalType": "address",
          "name": "voter_address",
          "type": "address"
        },
        {
          "indexed": false,
          "internalType": "bool",
          "name": "voter_voted",
          "type": "bool"
        }
      ],
      "name": "CreatingVoter",
      "type": "event"
    },
    {
      "inputs": [],
      "name": "_candidateId",
      "outputs": [
        {
          "internalType": "uint256",
          "name": "_value",
          "type": "uint256"
        }
      ],
      "stateMutability": "view",
      "type": "function"
    },
    {
      "inputs": [],
      "name": "_voterId",
      "outputs": [
        {
          "internalType": "uint256",
          "name": "_value",
          "type": "uint256"
        }
      ],
      "stateMutability": "view",
      "type": "function"
    },
    {
      "inputs": [
        {
          "internalType": "uint256",
          "name": "",
          "type": "uint256"
        }
      ],
      "name": "candidateAddress",
      "outputs": [
        {
          "internalType": "address",
          "name": "",
          "type": "address"
        }
      ],
      "stateMutability": "view",
      "type": "function"
    },
    {
      "inputs": [
        {
          "internalType": "uint256",
          "name": "",
          "type": "uint256"
        }
      ],
      "name": "candidates",
      "outputs": [
        {
          "internalType": "uint256",
          "name": "candidateId",
          "type": "uint256"
        },
        {
          "internalType": "uint256",
          "name": "voteCount",
          "type": "uint256"
        },
        {
          "internalType": "address",
          "name": "_address",
          "type": "address"
        },
        {
          "internalType": "string",
          "name": "ipfs",
          "type": "string"
        },
        {
          "internalType": "string",
          "name": "name",
          "type": "string"
        }
      ],
      "stateMutability": "view",
      "type": "function"
    },
    {
      "inputs": [],
      "name": "getAdmin",
      "outputs": [
        {
          "internalType": "address",
          "name": "",
          "type": "address"
        }
      ],
      "stateMutability": "view",
      "type": "function"
    },
    {
      "inputs": [
        {
          "internalType": "uint256",
          "name": "_index",
          "type": "uint256"
        }
      ],
      "name": "getCandidateData",
      "outputs": [
        {
          "internalType": "uint256",
          "name": "",
          "type": "uint256"
        },
        {
          "internalType": "uint256",
          "name": "",
          "type": "uint256"
        },
        {
          "internalType": "address",
          "name": "",
          "type": "address"
        },
        {
          "internalType": "string",
          "name": "",
          "type": "string"
        },
        {
          "internalType": "string",
          "name": "",
          "type": "string"
        }
      ],
      "stateMutability": "view",
      "type": "function"
    },
    {
      "inputs": [],
      "name": "getCandidateLength",
      "outputs": [
        {
          "internalType": "uint256",
          "name": "",
          "type": "uint256"
        }
      ],
      "stateMutability": "view",
      "type": "function"
    },
    {
      "inputs": [],
      "name": "getLeaderboard",
      "outputs": [
        {
          "components": [
            {
              "internalType": "uint256",
              "name": "candidateId",
              "type": "uint256"
            },
            {
              "internalType": "uint256",
              "name": "voteCount",
              "type": "uint256"
            },
            {
              "internalType": "address",
              "name": "_address",
              "type": "address"
            },
            {
              "internalType": "string",
              "name": "ipfs",
              "type": "string"
            },
            {
              "internalType": "string",
              "name": "name",
              "type": "string"
            }
          ],
          "internalType": "struct VotingContract.Candidate[]",
          "name": "",
          "type": "tuple[]"
        }
      ],
      "stateMutability": "view",
      "type": "function"
    },
    {
      "inputs": [],
      "name": "getVoterLength",
      "outputs": [
        {
          "internalType": "uint256",
          "name": "",
          "type": "uint256"
        }
      ],
      "stateMutability": "view",
      "type": "function"
    },
    {
      "inputs": [],
      "name": "getVotersList",
      "outputs": [
        {
          "internalType": "address[]",
          "name": "",
          "type": "address[]"
        }
      ],
      "stateMutability": "view",
      "type": "function"
    },
    {
      "inputs": [
        {
          "internalType": "address",
          "name": "_address",
          "type": "address"
        }
      ],
      "name": "giveVoterRight",
      "outputs": [],
      "stateMutability": "nonpayable",
      "type": "function"
    },
    {
      "inputs": [
        {
          "internalType": "address",
          "name": "_address",
          "type": "address"
        },
        {
          "internalType": "string",
          "name": "_ipfs",
          "type": "string"
        },
        {
          "internalType": "string",
          "name": "_name",
          "type": "string"
        }
      ],
      "name": "setCandidate",
      "outputs": [],
      "stateMutability": "nonpayable",
      "type": "function"
    },
    {
      "inputs": [
        {
          "internalType": "uint256",
          "name": "candidateId",
          "type": "uint256"
        }
      ],
      "name": "vote",
      "outputs": [],
      "stateMutability": "nonpayable",
      "type": "function"
    },
    {
      "inputs": [
        {
          "internalType": "uint256",
          "name": "",
          "type": "uint256"
        }
      ],
      "name": "votedVoters",
      "outputs": [
        {
          "internalType": "address",
          "name": "",
          "type": "address"
        }
      ],
      "stateMutability": "view",
      "type": "function"
    },
    {
      "inputs": [
        {
          "internalType": "address",
          "name": "",
          "type": "address"
        }
      ],
      "name": "voters",
      "outputs": [
        {
          "internalType": "uint256",
          "name": "voter_voterId",
          "type": "uint256"
        },
        {
          "internalType": "uint256",
          "name": "voter_allowed",
          "type": "uint256"
        },
        {
          "internalType": "uint256",
          "name": "voter_vote",
          "type": "uint256"
        },
        {
          "internalType": "address",
          "name": "voter_address",
          "type": "address"
        },
        {
          "internalType": "bool",
          "name": "voter_voted",
          "type": "bool"
        }
      ],
      "stateMutability": "view",
      "type": "function"
    },
    {
      "inputs": [
        {
          "internalType": "uint256",
          "name": "",
          "type": "uint256"
        }
      ],
      "name": "votersAddress",
      "outputs": [
        {
          "internalType": "address",
          "name": "",
          "type": "address"
        }
      ],
      "stateMutability": "view",
      "type": "function"
    },
    {
      "inputs": [],
      "name": "votingOrganizer",
      "outputs": [
        {
          "internalType": "address",
          "name": "",
          "type": "address"
        }
      ],
      "stateMutability": "view",
      "type": "function"
    }
  ],
  "bytecode": "0x608060405273a1b94ef0f24d7f4fd02285efcb9202e6c6ec655b600260006101000a81548173ffffffffffffffffffffffffffffffffffffffff021916908373ffffffffffffffffffffffffffffffffffffffff16021790555034801561006557600080fd5b50611ff8806100756000396000f3fe608060405234801561001057600080fd5b506004361061010b5760003560e01c80637831ffb3116100a2578063b9be315211610071578063b9be3152146102d6578063bc86f385146102f4578063bca50c4d14610312578063e243665114610346578063f7522a83146103625761010b565b80637831ffb3146102385780637a60ba4114610268578063a3ec138d14610284578063a7388967146102b85761010b565b806343242daa116100de57806343242daa146101ae5780635cc48aa7146101de5780636d763a6e146101fc5780636e9960c31461021a5761010b565b80630121b93f1461011057806305ad45a41461012c5780633477ee2e1461014a5780633a88251a1461017e575b600080fd5b61012a60048036038101906101259190611458565b610380565b005b6101346105c0565b6040516101419190611494565b60405180910390f35b610164600480360381019061015f9190611458565b6105cd565b604051610175959493929190611589565b60405180910390f35b61019860048036038101906101939190611458565b610733565b6040516101a591906115ea565b60405180910390f35b6101c860048036038101906101c39190611458565b610772565b6040516101d591906115ea565b60405180910390f35b6101e66107b1565b6040516101f391906115ea565b60405180910390f35b6102046107d7565b60405161021191906117ac565b60405180910390f35b610222610b70565b60405161022f91906115ea565b60405180910390f35b610252600480360381019061024d9190611458565b610b9a565b60405161025f91906115ea565b60405180910390f35b610282600480360381019061027d919061192f565b610bd9565b005b61029e600480360381019061029991906119ba565b610dc7565b6040516102af959493929190611a02565b60405180910390f35b6102c0610e2a565b6040516102cd9190611494565b60405180910390f35b6102de610e36565b6040516102eb9190611494565b60405180910390f35b6102fc610e42565b6040516103099190611b04565b60405180910390f35b61032c60048036038101906103279190611458565b610ed0565b60405161033d959493929190611589565b60405180910390f35b610360600480360381019061035b91906119ba565b611094565b005b61036a6112f1565b6040516103779190611494565b60405180910390f35b6000600760003373ffffffffffffffffffffffffffffffffffffffff1673ffffffffffffffffffffffffffffffffffffffff16815260200190815260200160002090508060030160149054906101000a900460ff1615610415576040517f08c379a000000000000000000000000000000000000000000000000000000000815260040161040c90611b72565b60405180910390fd5b60008160010154141561045d576040517f08c379a000000000000000000000000000000000000000000000000000000000815260040161045490611bde565b60405180910390fd5b3373ffffffffffffffffffffffffffffffffffffffff166004600084815260200190815260200160002060020160009054906101000a900473ffffffffffffffffffffffffffffffffffffffff1673ffffffffffffffffffffffffffffffffffffffff161415610502576040517f08c379a00000000000000000000000000000000000000000000000000000000081526004016104f990611c4a565b60405180910390fd5b60018160030160146101000a81548160ff0219169083151502179055508181600201819055506005339080600181540180825580915050600190039060005260206000200160009091909190916101000a81548173ffffffffffffffffffffffffffffffffffffffff021916908373ffffffffffffffffffffffffffffffffffffffff16021790555080600101546004600084815260200190815260200160002060010160008282546105b59190611c99565b925050819055505050565b6000600680549050905090565b60046020528060005260406000206000915090508060000154908060010154908060020160009054906101000a900473ffffffffffffffffffffffffffffffffffffffff169080600301805461062290611d1e565b80601f016020809104026020016040519081016040528092919081815260200182805461064e90611d1e565b801561069b5780601f106106705761010080835404028352916020019161069b565b820191906000526020600020905b81548152906001019060200180831161067e57829003601f168201915b5050505050908060040180546106b090611d1e565b80601f01602080910402602001604051908101604052809291908181526020018280546106dc90611d1e565b80156107295780601f106106fe57610100808354040283529160200191610729565b820191906000526020600020905b81548152906001019060200180831161070c57829003601f168201915b5050505050905085565b6003818154811061074357600080fd5b906000526020600020016000915054906101000a900473ffffffffffffffffffffffffffffffffffffffff1681565b6006818154811061078257600080fd5b906000526020600020016000915054906101000a900473ffffffffffffffffffffffffffffffffffffffff1681565b600260009054906101000a900473ffffffffffffffffffffffffffffffffffffffff1681565b606060006107e36112f1565b905060008167ffffffffffffffff81111561080157610800611804565b5b60405190808252806020026020018201604052801561083a57816020015b610827611326565b81526020019060019003908161081f5790505b50905060005b82811015610a2557600460008281526020019081526020016000206040518060a001604052908160008201548152602001600182015481526020016002820160009054906101000a900473ffffffffffffffffffffffffffffffffffffffff1673ffffffffffffffffffffffffffffffffffffffff1673ffffffffffffffffffffffffffffffffffffffff1681526020016003820180546108e090611d1e565b80601f016020809104026020016040519081016040528092919081815260200182805461090c90611d1e565b80156109595780601f1061092e57610100808354040283529160200191610959565b820191906000526020600020905b81548152906001019060200180831161093c57829003601f168201915b5050505050815260200160048201805461097290611d1e565b80601f016020809104026020016040519081016040528092919081815260200182805461099e90611d1e565b80156109eb5780601f106109c0576101008083540402835291602001916109eb565b820191906000526020600020905b8154815290600101906020018083116109ce57829003601f168201915b505050505081525050828281518110610a0757610a06611d50565b5b60200260200101819052508080610a1d90611d7f565b915050610840565b5060005b600183610a369190611dc8565b811015610b675760005b81600185610a4e9190611dc8565b610a589190611dc8565b811015610b535782600182610a6d9190611c99565b81518110610a7e57610a7d611d50565b5b602002602001015160200151838281518110610a9d57610a9c611d50565b5b6020026020010151602001511015610b40576000838281518110610ac457610ac3611d50565b5b6020026020010151905083600183610adc9190611c99565b81518110610aed57610aec611d50565b5b6020026020010151848381518110610b0857610b07611d50565b5b60200260200101819052508084600184610b229190611c99565b81518110610b3357610b32611d50565b5b6020026020010181905250505b8080610b4b90611d7f565b915050610a40565b508080610b5f90611d7f565b915050610a29565b50809250505090565b6000600260009054906101000a900473ffffffffffffffffffffffffffffffffffffffff16905090565b60058181548110610baa57600080fd5b906000526020600020016000915054906101000a900473ffffffffffffffffffffffffffffffffffffffff1681565b600260009054906101000a900473ffffffffffffffffffffffffffffffffffffffff1673ffffffffffffffffffffffffffffffffffffffff163373ffffffffffffffffffffffffffffffffffffffff1614610c69576040517f08c379a0000000000000000000000000000000000000000000000000000000008152600401610c6090611e48565b60405180910390fd5b6000610c756001611302565b9050600060046000838152602001908152602001600020905081816000018190555060008160010181905550848160020160006101000a81548173ffffffffffffffffffffffffffffffffffffffff021916908373ffffffffffffffffffffffffffffffffffffffff16021790555083816003019080519060200190610cfc92919061136b565b5082816004019080519060200190610d1592919061136b565b50610d206001611310565b6003859080600181540180825580915050600190039060005260206000200160009091909190916101000a81548173ffffffffffffffffffffffffffffffffffffffff021916908373ffffffffffffffffffffffffffffffffffffffff160217905550817fe7f27339cff4f53475ffa14b4d8d00e4b4e69e019c851306ec321eae5417853260008787604051610db893929190611ead565b60405180910390a25050505050565b60076020528060005260406000206000915090508060000154908060010154908060020154908060030160009054906101000a900473ffffffffffffffffffffffffffffffffffffffff16908060030160149054906101000a900460ff16905085565b60018060000154905081565b60008060000154905081565b60606006805480602002602001604051908101604052809291908181526020018280548015610ec657602002820191906000526020600020905b8160009054906101000a900473ffffffffffffffffffffffffffffffffffffffff1673ffffffffffffffffffffffffffffffffffffffff1681526020019060010190808311610e7c575b5050505050905090565b6000806000606080600460008781526020019081526020016000206000015460046000888152602001908152602001600020600101546004600089815260200190815260200160002060020160009054906101000a900473ffffffffffffffffffffffffffffffffffffffff16600460008a8152602001908152602001600020600301600460008b8152602001908152602001600020600401818054610f7590611d1e565b80601f0160208091040260200160405190810160405280929190818152602001828054610fa190611d1e565b8015610fee5780601f10610fc357610100808354040283529160200191610fee565b820191906000526020600020905b815481529060010190602001808311610fd157829003601f168201915b5050505050915080805461100190611d1e565b80601f016020809104026020016040519081016040528092919081815260200182805461102d90611d1e565b801561107a5780601f1061104f5761010080835404028352916020019161107a565b820191906000526020600020905b81548152906001019060200180831161105d57829003601f168201915b505050505090509450945094509450945091939590929450565b600260009054906101000a900473ffffffffffffffffffffffffffffffffffffffff1673ffffffffffffffffffffffffffffffffffffffff163373ffffffffffffffffffffffffffffffffffffffff1614611124576040517f08c379a000000000000000000000000000000000000000000000000000000000815260040161111b90611f5d565b60405180910390fd5b61112e6000611310565b600061113a6000611302565b90506000600760008473ffffffffffffffffffffffffffffffffffffffff1673ffffffffffffffffffffffffffffffffffffffff1681526020019081526020016000209050600081600101541461119057600080fd5b818160000181905550600181600101819055506103e88160020181905550828160030160006101000a81548173ffffffffffffffffffffffffffffffffffffffff021916908373ffffffffffffffffffffffffffffffffffffffff16021790555060008160030160146101000a81548160ff0219169083151502179055506006839080600181540180825580915050600190039060005260206000200160009091909190916101000a81548173ffffffffffffffffffffffffffffffffffffffff021916908373ffffffffffffffffffffffffffffffffffffffff160217905550817f0e92ea2fee16de6fdd67ab876bc522d46441f98c06ff863d38220510c823b45f826001015483600201548460030160009054906101000a900473ffffffffffffffffffffffffffffffffffffffff168560030160149054906101000a900460ff166040516112e49493929190611f7d565b60405180910390a2505050565b60006112fd6001611302565b905090565b600081600001549050919050565b6001816000016000828254019250508190555050565b6040518060a001604052806000815260200160008152602001600073ffffffffffffffffffffffffffffffffffffffff16815260200160608152602001606081525090565b82805461137790611d1e565b90600052602060002090601f01602090048101928261139957600085556113e0565b82601f106113b257805160ff19168380011785556113e0565b828001600101855582156113e0579182015b828111156113df5782518255916020019190600101906113c4565b5b5090506113ed91906113f1565b5090565b5b8082111561140a5760008160009055506001016113f2565b5090565b6000604051905090565b600080fd5b600080fd5b6000819050919050565b61143581611422565b811461144057600080fd5b50565b6000813590506114528161142c565b92915050565b60006020828403121561146e5761146d611418565b5b600061147c84828501611443565b91505092915050565b61148e81611422565b82525050565b60006020820190506114a96000830184611485565b92915050565b600073ffffffffffffffffffffffffffffffffffffffff82169050919050565b60006114da826114af565b9050919050565b6114ea816114cf565b82525050565b600081519050919050565b600082825260208201905092915050565b60005b8381101561152a57808201518184015260208101905061150f565b83811115611539576000848401525b50505050565b6000601f19601f8301169050919050565b600061155b826114f0565b61156581856114fb565b935061157581856020860161150c565b61157e8161153f565b840191505092915050565b600060a08201905061159e6000830188611485565b6115ab6020830187611485565b6115b860408301866114e1565b81810360608301526115ca8185611550565b905081810360808301526115de8184611550565b90509695505050505050565b60006020820190506115ff60008301846114e1565b92915050565b600081519050919050565b600082825260208201905092915050565b6000819050602082019050919050565b61163a81611422565b82525050565b611649816114cf565b82525050565b600082825260208201905092915050565b600061166b826114f0565b611675818561164f565b935061168581856020860161150c565b61168e8161153f565b840191505092915050565b600060a0830160008301516116b16000860182611631565b5060208301516116c46020860182611631565b5060408301516116d76040860182611640565b50606083015184820360608601526116ef8282611660565b915050608083015184820360808601526117098282611660565b9150508091505092915050565b60006117228383611699565b905092915050565b6000602082019050919050565b600061174282611605565b61174c8185611610565b93508360208202850161175e85611621565b8060005b8581101561179a578484038952815161177b8582611716565b94506117868361172a565b925060208a01995050600181019050611762565b50829750879550505050505092915050565b600060208201905081810360008301526117c68184611737565b905092915050565b6117d7816114cf565b81146117e257600080fd5b50565b6000813590506117f4816117ce565b92915050565b600080fd5b600080fd5b7f4e487b7100000000000000000000000000000000000000000000000000000000600052604160045260246000fd5b61183c8261153f565b810181811067ffffffffffffffff8211171561185b5761185a611804565b5b80604052505050565b600061186e61140e565b905061187a8282611833565b919050565b600067ffffffffffffffff82111561189a57611899611804565b5b6118a38261153f565b9050602081019050919050565b82818337600083830152505050565b60006118d26118cd8461187f565b611864565b9050828152602081018484840111156118ee576118ed6117ff565b5b6118f98482856118b0565b509392505050565b600082601f830112611916576119156117fa565b5b81356119268482602086016118bf565b91505092915050565b60008060006060848603121561194857611947611418565b5b6000611956868287016117e5565b935050602084013567ffffffffffffffff8111156119775761197661141d565b5b61198386828701611901565b925050604084013567ffffffffffffffff8111156119a4576119a361141d565b5b6119b086828701611901565b9150509250925092565b6000602082840312156119d0576119cf611418565b5b60006119de848285016117e5565b91505092915050565b60008115159050919050565b6119fc816119e7565b82525050565b600060a082019050611a176000830188611485565b611a246020830187611485565b611a316040830186611485565b611a3e60608301856114e1565b611a4b60808301846119f3565b9695505050505050565b600081519050919050565b600082825260208201905092915050565b6000819050602082019050919050565b6000611a8d8383611640565b60208301905092915050565b6000602082019050919050565b6000611ab182611a55565b611abb8185611a60565b9350611ac683611a71565b8060005b83811015611af7578151611ade8882611a81565b9750611ae983611a99565b925050600181019050611aca565b5085935050505092915050565b60006020820190508181036000830152611b1e8184611aa6565b905092915050565b7f596f75206861766520616c726561647920766f74656400000000000000000000600082015250565b6000611b5c6016836114fb565b9150611b6782611b26565b602082019050919050565b60006020820190508181036000830152611b8b81611b4f565b9050919050565b7f596f752068617665206e6f20726967687420746f20766f746500000000000000600082015250565b6000611bc86019836114fb565b9150611bd382611b92565b602082019050919050565b60006020820190508181036000830152611bf781611bbb565b9050919050565b7f596f752063616e6e6f7420766f746520666f7220796f75722073656c66000000600082015250565b6000611c34601d836114fb565b9150611c3f82611bfe565b602082019050919050565b60006020820190508181036000830152611c6381611c27565b9050919050565b7f4e487b7100000000000000000000000000000000000000000000000000000000600052601160045260246000fd5b6000611ca482611422565b9150611caf83611422565b9250827fffffffffffffffffffffffffffffffffffffffffffffffffffffffffffffffff03821115611ce457611ce3611c6a565b5b828201905092915050565b7f4e487b7100000000000000000000000000000000000000000000000000000000600052602260045260246000fd5b60006002820490506001821680611d3657607f821691505b60208210811415611d4a57611d49611cef565b5b50919050565b7f4e487b7100000000000000000000000000000000000000000000000000000000600052603260045260246000fd5b6000611d8a82611422565b91507fffffffffffffffffffffffffffffffffffffffffffffffffffffffffffffffff821415611dbd57611dbc611c6a565b5b600182019050919050565b6000611dd382611422565b9150611dde83611422565b925082821015611df157611df0611c6a565b5b828203905092915050565b7f4f6c79204f7267616e697a65722063616e207365742043616e64696461746500600082015250565b6000611e32601f836114fb565b9150611e3d82611dfc565b602082019050919050565b60006020820190508181036000830152611e6181611e25565b9050919050565b6000819050919050565b6000819050919050565b6000611e97611e92611e8d84611e68565b611e72565b611422565b9050919050565b611ea781611e7c565b82525050565b6000606082019050611ec26000830186611e9e565b611ecf60208301856114e1565b8181036040830152611ee18184611550565b9050949350505050565b7f4f6e6c79206f7267616e697a65722063616e206769766520726967687420746f60008201527f20766f7465000000000000000000000000000000000000000000000000000000602082015250565b6000611f476025836114fb565b9150611f5282611eeb565b604082019050919050565b60006020820190508181036000830152611f7681611f3a565b9050919050565b6000608082019050611f926000830187611485565b611f9f6020830186611485565b611fac60408301856114e1565b611fb960608301846119f3565b9594505050505056fea2646970667358221220c5bd9d77b06cc07d56e55d626e401217ede547ad59cc645d93e6507dac6acb5964736f6c63430008090033",
  "linkReferences": {},
  "deployedLinkReferences": {}
}